{
  "abi": [
    {
      "type": "constructor",
      "inputs": [],
      "stateMutability": "nonpayable"
    },
    {
      "type": "function",
      "name": "allowance",
      "inputs": [
        {
          "name": "owner",
          "type": "address",
          "internalType": "address"
        },
        {
          "name": "spender",
          "type": "address",
          "internalType": "address"
        }
      ],
      "outputs": [
        {
          "name": "",
          "type": "uint256",
          "internalType": "uint256"
        }
      ],
      "stateMutability": "view"
    },
    {
      "type": "function",
      "name": "approve",
      "inputs": [
        {
          "name": "spender",
          "type": "address",
          "internalType": "address"
        },
        {
          "name": "value",
          "type": "uint256",
          "internalType": "uint256"
        }
      ],
      "outputs": [
        {
          "name": "",
          "type": "bool",
          "internalType": "bool"
        }
      ],
      "stateMutability": "nonpayable"
    },
    {
      "type": "function",
      "name": "asset",
      "inputs": [],
      "outputs": [
        {
          "name": "",
          "type": "address",
          "internalType": "address"
        }
      ],
      "stateMutability": "view"
    },
    {
      "type": "function",
      "name": "balanceOf",
      "inputs": [
        {
          "name": "account",
          "type": "address",
          "internalType": "address"
        }
      ],
      "outputs": [
        {
          "name": "",
          "type": "uint256",
          "internalType": "uint256"
        }
      ],
      "stateMutability": "view"
    },
    {
      "type": "function",
      "name": "convertToAssets",
      "inputs": [
        {
          "name": "shares",
          "type": "uint256",
          "internalType": "uint256"
        }
      ],
      "outputs": [
        {
          "name": "",
          "type": "uint256",
          "internalType": "uint256"
        }
      ],
      "stateMutability": "view"
    },
    {
      "type": "function",
      "name": "convertToShares",
      "inputs": [
        {
          "name": "assets",
          "type": "uint256",
          "internalType": "uint256"
        }
      ],
      "outputs": [
        {
          "name": "",
          "type": "uint256",
          "internalType": "uint256"
        }
      ],
      "stateMutability": "view"
    },
    {
      "type": "function",
      "name": "decimals",
      "inputs": [],
      "outputs": [
        {
          "name": "",
          "type": "uint8",
          "internalType": "uint8"
        }
      ],
      "stateMutability": "view"
    },
    {
      "type": "function",
      "name": "deposit",
      "inputs": [
        {
          "name": "assets",
          "type": "uint256",
          "internalType": "uint256"
        },
        {
          "name": "receiver",
          "type": "address",
          "internalType": "address"
        }
      ],
      "outputs": [
        {
          "name": "shares",
          "type": "uint256",
          "internalType": "uint256"
        }
      ],
      "stateMutability": "nonpayable"
    },
    {
      "type": "function",
      "name": "initialize",
      "inputs": [
        {
          "name": "_asset",
          "type": "address",
          "internalType": "address"
        },
        {
          "name": "_stKAIA",
          "type": "address",
          "internalType": "address"
        },
        {
          "name": "_uniswapRouter",
          "type": "address",
          "internalType": "address"
        },
        {
          "name": "_perpDex",
          "type": "address",
          "internalType": "address"
        },
        {
          "name": "_initialOwner",
          "type": "address",
          "internalType": "address"
        }
      ],
      "outputs": [],
      "stateMutability": "nonpayable"
    },
    {
      "type": "function",
      "name": "leverage",
      "inputs": [],
      "outputs": [
        {
          "name": "",
          "type": "uint256",
          "internalType": "uint256"
        }
      ],
      "stateMutability": "view"
    },
    {
      "type": "function",
      "name": "maxDeposit",
      "inputs": [
        {
          "name": "",
          "type": "address",
          "internalType": "address"
        }
      ],
      "outputs": [
        {
          "name": "",
          "type": "uint256",
          "internalType": "uint256"
        }
      ],
      "stateMutability": "view"
    },
    {
      "type": "function",
      "name": "maxMint",
      "inputs": [
        {
          "name": "",
          "type": "address",
          "internalType": "address"
        }
      ],
      "outputs": [
        {
          "name": "",
          "type": "uint256",
          "internalType": "uint256"
        }
      ],
      "stateMutability": "view"
    },
    {
      "type": "function",
      "name": "maxRedeem",
      "inputs": [
        {
          "name": "owner",
          "type": "address",
          "internalType": "address"
        }
      ],
      "outputs": [
        {
          "name": "",
          "type": "uint256",
          "internalType": "uint256"
        }
      ],
      "stateMutability": "view"
    },
    {
      "type": "function",
      "name": "maxWithdraw",
      "inputs": [
        {
          "name": "owner",
          "type": "address",
          "internalType": "address"
        }
      ],
      "outputs": [
        {
          "name": "",
          "type": "uint256",
          "internalType": "uint256"
        }
      ],
      "stateMutability": "view"
    },
    {
      "type": "function",
      "name": "mint",
      "inputs": [
        {
          "name": "shares",
          "type": "uint256",
          "internalType": "uint256"
        },
        {
          "name": "receiver",
          "type": "address",
          "internalType": "address"
        }
      ],
      "outputs": [
        {
          "name": "",
          "type": "uint256",
          "internalType": "uint256"
        }
      ],
      "stateMutability": "nonpayable"
    },
    {
      "type": "function",
      "name": "name",
      "inputs": [],
      "outputs": [
        {
          "name": "",
          "type": "string",
          "internalType": "string"
        }
      ],
      "stateMutability": "view"
    },
    {
      "type": "function",
      "name": "owner",
      "inputs": [],
      "outputs": [
        {
          "name": "",
          "type": "address",
          "internalType": "address"
        }
      ],
      "stateMutability": "view"
    },
    {
      "type": "function",
      "name": "paused",
      "inputs": [],
      "outputs": [
        {
          "name": "",
          "type": "bool",
          "internalType": "bool"
        }
      ],
      "stateMutability": "view"
    },
    {
      "type": "function",
      "name": "perpDex",
      "inputs": [],
      "outputs": [
        {
          "name": "",
          "type": "address",
          "internalType": "contract IPerpDex"
        }
      ],
      "stateMutability": "view"
    },
    {
      "type": "function",
      "name": "perpDexTokenType",
      "inputs": [],
      "outputs": [
        {
          "name": "",
          "type": "uint8",
          "internalType": "enum IPerpDex.TokenType"
        }
      ],
      "stateMutability": "view"
    },
    {
      "type": "function",
      "name": "previewDeposit",
      "inputs": [
        {
          "name": "assets",
          "type": "uint256",
          "internalType": "uint256"
        }
      ],
      "outputs": [
        {
          "name": "",
          "type": "uint256",
          "internalType": "uint256"
        }
      ],
      "stateMutability": "view"
    },
    {
      "type": "function",
      "name": "previewMint",
      "inputs": [
        {
          "name": "shares",
          "type": "uint256",
          "internalType": "uint256"
        }
      ],
      "outputs": [
        {
          "name": "",
          "type": "uint256",
          "internalType": "uint256"
        }
      ],
      "stateMutability": "view"
    },
    {
      "type": "function",
      "name": "previewRedeem",
      "inputs": [
        {
          "name": "shares",
          "type": "uint256",
          "internalType": "uint256"
        }
      ],
      "outputs": [
        {
          "name": "",
          "type": "uint256",
          "internalType": "uint256"
        }
      ],
      "stateMutability": "view"
    },
    {
      "type": "function",
      "name": "previewWithdraw",
      "inputs": [
        {
          "name": "assets",
          "type": "uint256",
          "internalType": "uint256"
        }
      ],
      "outputs": [
        {
          "name": "",
          "type": "uint256",
          "internalType": "uint256"
        }
      ],
      "stateMutability": "view"
    },
    {
      "type": "function",
      "name": "redeem",
      "inputs": [
        {
          "name": "shares",
          "type": "uint256",
          "internalType": "uint256"
        },
        {
          "name": "receiver",
          "type": "address",
          "internalType": "address"
        },
        {
          "name": "owner",
          "type": "address",
          "internalType": "address"
        }
      ],
      "outputs": [
        {
          "name": "",
          "type": "uint256",
          "internalType": "uint256"
        }
      ],
      "stateMutability": "nonpayable"
    },
    {
      "type": "function",
      "name": "renounceOwnership",
      "inputs": [],
      "outputs": [],
      "stateMutability": "nonpayable"
    },
    {
      "type": "function",
      "name": "stKAIA",
      "inputs": [],
      "outputs": [
        {
          "name": "",
          "type": "address",
          "internalType": "contract IERC20"
        }
      ],
      "stateMutability": "view"
    },
    {
      "type": "function",
      "name": "swapFee",
      "inputs": [],
      "outputs": [
        {
          "name": "",
          "type": "uint24",
          "internalType": "uint24"
        }
      ],
      "stateMutability": "view"
    },
    {
      "type": "function",
      "name": "symbol",
      "inputs": [],
      "outputs": [
        {
          "name": "",
          "type": "string",
          "internalType": "string"
        }
      ],
      "stateMutability": "view"
    },
    {
      "type": "function",
      "name": "totalAssets",
      "inputs": [],
      "outputs": [
        {
          "name": "",
          "type": "uint256",
          "internalType": "uint256"
        }
      ],
      "stateMutability": "view"
    },
    {
      "type": "function",
      "name": "totalSupply",
      "inputs": [],
      "outputs": [
        {
          "name": "",
          "type": "uint256",
          "internalType": "uint256"
        }
      ],
      "stateMutability": "view"
    },
    {
      "type": "function",
      "name": "transfer",
      "inputs": [
        {
          "name": "to",
          "type": "address",
          "internalType": "address"
        },
        {
          "name": "value",
          "type": "uint256",
          "internalType": "uint256"
        }
      ],
      "outputs": [
        {
          "name": "",
          "type": "bool",
          "internalType": "bool"
        }
      ],
      "stateMutability": "nonpayable"
    },
    {
      "type": "function",
      "name": "transferFrom",
      "inputs": [
        {
          "name": "from",
          "type": "address",
          "internalType": "address"
        },
        {
          "name": "to",
          "type": "address",
          "internalType": "address"
        },
        {
          "name": "value",
          "type": "uint256",
          "internalType": "uint256"
        }
      ],
      "outputs": [
        {
          "name": "",
          "type": "bool",
          "internalType": "bool"
        }
      ],
      "stateMutability": "nonpayable"
    },
    {
      "type": "function",
      "name": "transferOwnership",
      "inputs": [
        {
          "name": "newOwner",
          "type": "address",
          "internalType": "address"
        }
      ],
      "outputs": [],
      "stateMutability": "nonpayable"
    },
    {
      "type": "function",
      "name": "uniswapRouter",
      "inputs": [],
      "outputs": [
        {
          "name": "",
          "type": "address",
          "internalType": "contract IUniswapV3Router"
        }
      ],
      "stateMutability": "view"
    },
    {
      "type": "function",
      "name": "withdraw",
      "inputs": [
        {
          "name": "assets",
          "type": "uint256",
          "internalType": "uint256"
        },
        {
          "name": "receiver",
          "type": "address",
          "internalType": "address"
        },
        {
          "name": "owner",
          "type": "address",
          "internalType": "address"
        }
      ],
      "outputs": [
        {
          "name": "",
          "type": "uint256",
          "internalType": "uint256"
        }
      ],
      "stateMutability": "nonpayable"
    },
    {
      "type": "event",
      "name": "Approval",
      "inputs": [
        {
          "name": "owner",
          "type": "address",
          "indexed": true,
          "internalType": "address"
        },
        {
          "name": "spender",
          "type": "address",
          "indexed": true,
          "internalType": "address"
        },
        {
          "name": "value",
          "type": "uint256",
          "indexed": false,
          "internalType": "uint256"
        }
      ],
      "anonymous": false
    },
    {
      "type": "event",
      "name": "Deposit",
      "inputs": [
        {
          "name": "sender",
          "type": "address",
          "indexed": true,
          "internalType": "address"
        },
        {
          "name": "owner",
          "type": "address",
          "indexed": true,
          "internalType": "address"
        },
        {
          "name": "assets",
          "type": "uint256",
          "indexed": false,
          "internalType": "uint256"
        },
        {
          "name": "shares",
          "type": "uint256",
          "indexed": false,
          "internalType": "uint256"
        }
      ],
      "anonymous": false
    },
    {
      "type": "event",
      "name": "Initialized",
      "inputs": [
        {
          "name": "version",
          "type": "uint64",
          "indexed": false,
          "internalType": "uint64"
        }
      ],
      "anonymous": false
    },
    {
      "type": "event",
      "name": "OwnershipTransferred",
      "inputs": [
        {
          "name": "previousOwner",
          "type": "address",
          "indexed": true,
          "internalType": "address"
        },
        {
          "name": "newOwner",
          "type": "address",
          "indexed": true,
          "internalType": "address"
        }
      ],
      "anonymous": false
    },
    {
      "type": "event",
      "name": "Paused",
      "inputs": [
        {
          "name": "account",
          "type": "address",
          "indexed": false,
          "internalType": "address"
        }
      ],
      "anonymous": false
    },
    {
      "type": "event",
      "name": "StrategyExecuted",
      "inputs": [
        {
          "name": "totalUsdtAmount",
          "type": "uint256",
          "indexed": false,
          "internalType": "uint256"
        },
        {
          "name": "amountSwapped",
          "type": "uint256",
          "indexed": false,
          "internalType": "uint256"
        },
        {
          "name": "amountShorted",
          "type": "uint256",
          "indexed": false,
          "internalType": "uint256"
        },
        {
          "name": "stKAIAAmountReceived",
          "type": "uint256",
          "indexed": false,
          "internalType": "uint256"
        }
      ],
      "anonymous": false
    },
    {
      "type": "event",
      "name": "Transfer",
      "inputs": [
        {
          "name": "from",
          "type": "address",
          "indexed": true,
          "internalType": "address"
        },
        {
          "name": "to",
          "type": "address",
          "indexed": true,
          "internalType": "address"
        },
        {
          "name": "value",
          "type": "uint256",
          "indexed": false,
          "internalType": "uint256"
        }
      ],
      "anonymous": false
    },
    {
      "type": "event",
      "name": "Unpaused",
      "inputs": [
        {
          "name": "account",
          "type": "address",
          "indexed": false,
          "internalType": "address"
        }
      ],
      "anonymous": false
    },
    {
      "type": "event",
      "name": "Withdraw",
      "inputs": [
        {
          "name": "sender",
          "type": "address",
          "indexed": true,
          "internalType": "address"
        },
        {
          "name": "receiver",
          "type": "address",
          "indexed": true,
          "internalType": "address"
        },
        {
          "name": "owner",
          "type": "address",
          "indexed": true,
          "internalType": "address"
        },
        {
          "name": "assets",
          "type": "uint256",
          "indexed": false,
          "internalType": "uint256"
        },
        {
          "name": "shares",
          "type": "uint256",
          "indexed": false,
          "internalType": "uint256"
        }
      ],
      "anonymous": false
    },
    {
      "type": "error",
      "name": "ERC20InsufficientAllowance",
      "inputs": [
        {
          "name": "spender",
          "type": "address",
          "internalType": "address"
        },
        {
          "name": "allowance",
          "type": "uint256",
          "internalType": "uint256"
        },
        {
          "name": "needed",
          "type": "uint256",
          "internalType": "uint256"
        }
      ]
    },
    {
      "type": "error",
      "name": "ERC20InsufficientBalance",
      "inputs": [
        {
          "name": "sender",
          "type": "address",
          "internalType": "address"
        },
        {
          "name": "balance",
          "type": "uint256",
          "internalType": "uint256"
        },
        {
          "name": "needed",
          "type": "uint256",
          "internalType": "uint256"
        }
      ]
    },
    {
      "type": "error",
      "name": "ERC20InvalidApprover",
      "inputs": [
        {
          "name": "approver",
          "type": "address",
          "internalType": "address"
        }
      ]
    },
    {
      "type": "error",
      "name": "ERC20InvalidReceiver",
      "inputs": [
        {
          "name": "receiver",
          "type": "address",
          "internalType": "address"
        }
      ]
    },
    {
      "type": "error",
      "name": "ERC20InvalidSender",
      "inputs": [
        {
          "name": "sender",
          "type": "address",
          "internalType": "address"
        }
      ]
    },
    {
      "type": "error",
      "name": "ERC20InvalidSpender",
      "inputs": [
        {
          "name": "spender",
          "type": "address",
          "internalType": "address"
        }
      ]
    },
    {
      "type": "error",
      "name": "ERC4626ExceededMaxDeposit",
      "inputs": [
        {
          "name": "receiver",
          "type": "address",
          "internalType": "address"
        },
        {
          "name": "assets",
          "type": "uint256",
          "internalType": "uint256"
        },
        {
          "name": "max",
          "type": "uint256",
          "internalType": "uint256"
        }
      ]
    },
    {
      "type": "error",
      "name": "ERC4626ExceededMaxMint",
      "inputs": [
        {
          "name": "receiver",
          "type": "address",
          "internalType": "address"
        },
        {
          "name": "shares",
          "type": "uint256",
          "internalType": "uint256"
        },
        {
          "name": "max",
          "type": "uint256",
          "internalType": "uint256"
        }
      ]
    },
    {
      "type": "error",
      "name": "ERC4626ExceededMaxRedeem",
      "inputs": [
        {
          "name": "owner",
          "type": "address",
          "internalType": "address"
        },
        {
          "name": "shares",
          "type": "uint256",
          "internalType": "uint256"
        },
        {
          "name": "max",
          "type": "uint256",
          "internalType": "uint256"
        }
      ]
    },
    {
      "type": "error",
      "name": "ERC4626ExceededMaxWithdraw",
      "inputs": [
        {
          "name": "owner",
          "type": "address",
          "internalType": "address"
        },
        {
          "name": "assets",
          "type": "uint256",
          "internalType": "uint256"
        },
        {
          "name": "max",
          "type": "uint256",
          "internalType": "uint256"
        }
      ]
    },
    {
      "type": "error",
      "name": "EnforcedPause",
      "inputs": []
    },
    {
      "type": "error",
      "name": "ExpectedPause",
      "inputs": []
    },
    {
      "type": "error",
      "name": "InvalidInitialization",
      "inputs": []
    },
    {
      "type": "error",
      "name": "NotInitializing",
      "inputs": []
    },
    {
      "type": "error",
      "name": "OwnableInvalidOwner",
      "inputs": [
        {
          "name": "owner",
          "type": "address",
          "internalType": "address"
        }
      ]
    },
    {
      "type": "error",
      "name": "OwnableUnauthorizedAccount",
      "inputs": [
        {
          "name": "account",
          "type": "address",
          "internalType": "address"
        }
      ]
    },
    {
      "type": "error",
      "name": "ReentrancyGuardReentrantCall",
      "inputs": []
    },
    {
      "type": "error",
      "name": "SafeERC20FailedOperation",
      "inputs": [
        {
          "name": "token",
          "type": "address",
          "internalType": "address"
        }
      ]
    }
  ],
  "bytecode": {
    "object": "0x6080806040523460aa575f5160206122825f395f51905f525460ff8160401c16609b576002600160401b03196001600160401b038216016049575b6040516121d390816100af8239f35b6001600160401b0319166001600160401b039081175f5160206122825f395f51905f525581527fc7f505b2f371ae2175ee4913f4499e1f2633a7b5936321eed1cdaeb6115181d290602090a15f80603a565b63f92ee8a960e01b5f5260045ffd5b5f80fdfe60806040526004361015610011575f80fd5b5f5f3560e01c806301e1d1141461161557806306fdde031461153357806307a2d13a14610d87578063095ea7b31461148e5780630a28a47714611470578063123c549c146114485780631459457a14610e7657806318160ddd14610e4d57806323b872dd14610e155780632c86d98e14610df8578063313ce56714610dc057806338d52e0f14610d8c578063402d267d1461029b5780634cdad50614610d8757806354cf2aeb14610d625780635c975abb14610d215780636e553f65146105cb57806370a0823114610222578063715018a614610562578063735de9f71461053b5780638da5cb5b1461050657806394bf804d146104d257806395d89b41146103d35780639c884346146103ab578063a9059cbb14610379578063b3d7f6b91461035a578063b460af94146102fd578063ba087652146102a0578063c63d75b61461029b578063c6e6f592146101d5578063ce96cb7714610277578063d80dabac1461024e578063d905777e14610222578063dd62ed3e146101da578063ef8b30f7146101d55763f2fde38b146101a6575f80fd5b346101d25760203660031901126101d2576101cf6101c2611671565b6101ca611bd0565b6118d2565b80f35b80fd5b611709565b50346101d25760403660031901126101d2576101f4611671565b6102056101ff611687565b91611845565b9060018060a01b03165f52602052602060405f2054604051908152f35b50346101d25760203660031901126101d2576020610246610241611671565b61187d565b604051908152f35b50346101d257806003193601126101d2576002546040516001600160a01b039091168152602090f35b50346101d25760203660031901126101d2576020610246610296611671565b6118a3565b61169d565b50346101d2576102af366116cf565b926102b98461187d565b8084116102da5760208561024686866102d18261198a565b93849133611d0d565b915091606493632e52afbb60e21b845260018060a01b0316600452602452604452fd5b50346101d25761030c366116cf565b919092610318836118a3565b808311610339576020846102468786610330816119c3565b93849233611d0d565b60649284633fa733bb60e21b845260018060a01b0316600452602452604452fd5b50346101d25760203660031901126101d2576020610246600435611950565b50346101d25760403660031901126101d2576103a0610396611671565b6024359033611ad4565b602060405160018152f35b50346101d257806003193601126101d257602060ff600454166103d160405180926116c2565bf35b50346101d257806003193601126101d25760405190805f5160206120de5f395f51905f525490610402826117c1565b80855291600181169081156104ab5750600114610442575b61043e8461042a81860382611727565b60405191829160208352602083019061162f565b0390f35b5f5160206120de5f395f51905f5281527f46a2803e59a4de4e7a4c574b1243f25977ac4c77d5a1a4a609b5394cebb4a2aa939250905b8082106104915750909150810160200161042a8261041a565b919260018160209254838588010152019101909291610478565b60ff191660208087019190915292151560051b8501909201925061042a915083905061041a565b50346101d25760403660031901126101d25760206004356102466104f4611687565b916104fe81611950565b809333611c03565b50346101d257806003193601126101d2575f5160206120fe5f395f51905f52546040516001600160a01b039091168152602090f35b50346101d257806003193601126101d257546040516001600160a01b039091168152602090f35b50346101d257806003193601126101d25761057b611bd0565b5f5160206120fe5f395f51905f5280546001600160a01b0319811690915581906001600160a01b03167f8be0079c531659141344cd1fd0a4f28419497f9722a3daafe3b4186f6b6457e08280a380f35b34610c21576040366003190112610c21576004356105e7611687565b9060025f51602061215e5f395f51905f525414610d125760025f51602061215e5f395f51905f525560ff7fcd5ed15c6e187e77e9aee88184c21f4f2182ab5827cb3b7e07fbedcd63f033005416610d03578061065b81151593610649856117f9565b610652836119fd565b93849133611c03565b6040519260a084019084821067ffffffffffffffff831117610c25576106a1916040525f85526060602086015260606040860152606080860152606060808601526117f9565b8060011c80820390828211610cef575f51602061213e5f395f51905f52545f805460405163095ea7b360e01b81526001600160a01b039182166004820152602481018390529216969190602090829060449082908b5af18015610b8157610cd2575b505f5460405163095ea7b360e01b81526001600160a01b03909116600482015260248101839052602081806044810103815f8b5af18015610b8157610cb5575b506002549560405160e0810181811067ffffffffffffffff821117610c25576040528181526020810190600160a01b6001900389168252604081019860a01c62ffffff168952606081013081526080820186815260a083015f815260c08401915f8352600160a01b600190035f5416936040519d8e9788976304e45aaf60e01b8952600160a01b600190039051166004890152600160a01b6001900390511660248801525162ffffff166044870152600160a01b6001900390511660648601525160848501525160a4840152600160a01b6001900390511660c48301525a925f60e492602095f1968715610b81575f97610c81575b50828503610899575b6020867f1016dd3802d85d7f0edea8943b2098da8f36ba247e2a7d2999137e83bf2602da6080888b89896040519384528784015260408301526060820152a160015f51602061215e5f395f51905f5255604051908152f35b60018060a098939694981b03600154166040519063095ea7b360e01b825260048201525f60248201526020816044815f865af18015610b815761091b926020928792610c66575b5060015460405163095ea7b360e01b81526001600160a01b0390911660048201526024810192909252909283919082905f9082906044820190565b03925af18015610b8157610c39575b5060ff60045416936003549060405195610140870187811067ffffffffffffffff821117610c25576040526013811015610c0d57865260208601958587526040810192835260608101915f8352608082019030825260a0830190815260c083015f815260e08401915f83526101008501935f8552602096604051966109af8989611727565b5f885261012081019788526001546001600160a01b0316998a3b15610c21576040519e8f92630d0309cd60e21b84528b6004850152602484019051906109f4916116c2565b5160448301525160649091015251151560848d0152516001600160a01b031660a48c01525161014060c48c01528051906102048c016002831015610c0d57908c979695949392610164890152868101519160a06101848a01528251809152876102248a019301905f5b818110610bf657505050604081015188830361016319016101a48a0152805180845292880192908801905f5b818110610bdf57505050606081015188830361016319016101c48a0152805180845292880192908801905f5b818110610bc857505050608001519561016319888303016101e48901528651908183528083019281808460051b8301019901935f915b848310610b8c575050505050505f9694869488948694610b2c945160e48701525161010486015251610124850152516023198483030161014485015261162f565b03925af1928315610b81576020967f1016dd3802d85d7f0edea8943b2098da8f36ba247e2a7d2999137e83bf2602da95608095610b71575b5092945092819650610841565b5f610b7b91611727565b5f610b64565b6040513d5f823e3d90fd5b91939596979899859b509280610bb0600193958298601f198783030188525161162f565b9c019301930190928f9a999897969593949294610aeb565b825185528f9a509389019391890191600101610ab5565b825185528f9a509389019391890191600101610a89565b825185528f9a509389019391890191600101610a5d565b634e487b7160e01b5f52602160045260245ffd5b5f80fd5b634e487b7160e01b5f52604160045260245ffd5b610c5a9060203d602011610c5f575b610c528183611727565b810190611bb8565b61092a565b503d610c48565b610c7c90843d8611610c5f57610c528183611727565b6108e0565b9096506020813d602011610cad575b81610c9d60209383611727565b81010312610c2157519587610838565b3d9150610c90565b610ccd9060203d602011610c5f57610c528183611727565b610743565b610cea9060203d602011610c5f57610c528183611727565b610703565b634e487b7160e01b5f52601160045260245ffd5b63d93c066560e01b5f5260045ffd5b633ee5aeb560e01b5f5260045ffd5b34610c21575f366003190112610c2157602060ff7fcd5ed15c6e187e77e9aee88184c21f4f2182ab5827cb3b7e07fbedcd63f0330054166040519015158152f35b34610c21575f366003190112610c2157602062ffffff60025460a01c16604051908152f35b611653565b34610c21575f366003190112610c21575f51602061213e5f395f51905f52546040516001600160a01b039091168152602090f35b34610c21575f366003190112610c215760ff5f51602061213e5f395f51905f525460a01c1660ff8111610cef57602090604051908152f35b34610c21575f366003190112610c21576020600354604051908152f35b34610c21576060366003190112610c21576103a0610e31611671565b610e39611687565b60443591610e48833383611a36565b611ad4565b34610c21575f366003190112610c215760205f51602061211e5f395f51905f5254604051908152f35b34610c215760a0366003190112610c2157610e8f611671565b610e97611687565b6044356001600160a01b038116929190839003610c21576064356001600160a01b0381169390849003610c2157608435936001600160a01b0385168503610c21575f51602061217e5f395f51905f52549360ff8560401c16159467ffffffffffffffff811680159081611440575b6001149081611436575b15908161142d575b5061141e5767ffffffffffffffff1981166001175f51602061217e5f395f51905f5255856113f2575b506001600160a01b0316610f52611ec4565b610f5a611ec4565b610f6381611f8e565b90156113ea575b5f51602061213e5f395f51905f52549060ff60a01b9060a01b16906affffffffffffffffffffff60a81b1617175f51602061213e5f395f51905f52556040948551610fb58782611727565b602081527f53746b6169612044656c7461204e65757472616c205661756c742053686172656020820152865190610fec8883611727565b600582526473646e565360d81b6020830152611006611ec4565b61100e611ec4565b80519067ffffffffffffffff8211610c255781906110395f51602061209e5f395f51905f52546117c1565b601f8111611370575b50602090601f83116001146112f2575f926112e7575b50508160011b915f199060031b1c1916175f51602061209e5f395f51905f52555b80519067ffffffffffffffff8211610c25576110a25f5160206120de5f395f51905f52546117c1565b601f8111611278575b50602090601f83116001146111f7576110f99392915f91836111ec575b50508160011b915f199060031b1c1916175f5160206120de5f395f51905f52555b6110f1611ec4565b6101ca611ec4565b611101611ec4565b611109611ec4565b611111611ec4565b60015f51602061215e5f395f51905f5255600254916bffffffffffffffffffffffff60a01b5f5416175f556bffffffffffffffffffffffff60a01b600154161760015561017760a31b9160018060a01b03169068ffffffffffffffffff60b81b161717600255671bc16d674ec80000600355600160ff19600454161760045561119657005b60207fc7f505b2f371ae2175ee4913f4499e1f2633a7b5936321eed1cdaeb6115181d29168ff0000000000000000195f51602061217e5f395f51905f5254165f51602061217e5f395f51905f52555160018152a1005b0151905089806110c8565b90601f198316915f5160206120de5f395f51905f525f52815f20925f5b81811061126057509160019391856110f997969410611248575b505050811b015f5160206120de5f395f51905f52556110e9565b01515f1960f88460031b161c1916905589808061122e565b92936020600181928786015181550195019301611214565b5f5160206120de5f395f51905f525f527f46a2803e59a4de4e7a4c574b1243f25977ac4c77d5a1a4a609b5394cebb4a2aa601f840160051c810191602085106112dd575b601f0160051c01905b8181106112d257506110ab565b5f81556001016112c5565b90915081906112bc565b015190508980611058565b5f51602061209e5f395f51905f525f9081528281209350601f198516905b8181106113585750908460019594939210611340575b505050811b015f51602061209e5f395f51905f5255611079565b01515f1960f88460031b161c19169055898080611326565b92936020600181928786015181550195019301611310565b5f51602061209e5f395f51905f525f529091507f2ae08a8e29253f69ac5d979a101956ab8f8d9d7ded63fa7a83b16fc47648eab0601f840160051c810191602085106113e0575b90601f859493920160051c01905b8181106113d25750611042565b5f81558493506001016113c5565b90915081906113b7565b506012610f6a565b68ffffffffffffffffff191668010000000000000001175f51602061217e5f395f51905f525586610f40565b63f92ee8a960e01b5f5260045ffd5b90501588610f17565b303b159150610f0f565b879150610f05565b34610c21575f366003190112610c21576001546040516001600160a01b039091168152602090f35b34610c21576020366003190112610c215760206102466004356119c3565b34610c21576040366003190112610c21576114a7611671565b602435903315611520576001600160a01b031690811561150d576114ca33611845565b825f526020528060405f20556040519081527f8c5be1e5ebec7d5bd14f71427d1e84f3dd0314c0f7b2291e5b200ac8c7c3b92560203392a3602060405160018152f35b634a1406b160e11b5f525f60045260245ffd5b63e602df0560e01b5f525f60045260245ffd5b34610c21575f366003190112610c21576040515f5f51602061209e5f395f51905f525461155f816117c1565b80845290600181169081156115f15750600114611587575b61043e8361042a81850382611727565b5f51602061209e5f395f51905f525f9081527f2ae08a8e29253f69ac5d979a101956ab8f8d9d7ded63fa7a83b16fc47648eab0939250905b8082106115d75750909150810160200161042a611577565b9192600181602092548385880101520191019092916115bf565b60ff191660208086019190915291151560051b8401909101915061042a9050611577565b34610c21575f366003190112610c21576020610246611749565b805180835260209291819084018484015e5f828201840152601f01601f1916010190565b34610c21576020366003190112610c2157602061024660043561198a565b600435906001600160a01b0382168203610c2157565b602435906001600160a01b0382168203610c2157565b34610c21576020366003190112610c21576116b6611671565b5060206040515f198152f35b906013821015610c0d5752565b6060906003190112610c2157600435906024356001600160a01b0381168103610c2157906044356001600160a01b0381168103610c215790565b34610c21576020366003190112610c215760206102466004356119fd565b90601f8019910116810190811067ffffffffffffffff821117610c2557604052565b5f51602061213e5f395f51905f52546040516370a0823160e01b815230600482015290602090829060249082906001600160a01b03165afa908115610b81575f91611792575090565b90506020813d6020116117b9575b816117ad60209383611727565b81010312610c21575190565b3d91506117a0565b90600182811c921680156117ef575b60208310146117db57565b634e487b7160e01b5f52602260045260245ffd5b91607f16916117d0565b1561180057565b60405162461bcd60e51b815260206004820152601960248201527f5661756c743a20616d6f756e74206d757374206265203e2030000000000000006044820152606490fd5b6001600160a01b03165f9081527f52c63247e1f47db19d5ce0460030c497f067ca4cebf71ba98eeadabe20bace016020526040902090565b6001600160a01b03165f9081525f5160206120be5f395f51905f52602052604090205490565b6001600160a01b03165f9081525f5160206120be5f395f51905f5260205260409020546118cf9061198a565b90565b6001600160a01b03168015611930575f5160206120fe5f395f51905f5280546001600160a01b0319811683179091556001600160a01b03167f8be0079c531659141344cd1fd0a4f28419497f9722a3daafe3b4186f6b6457e05f80a3565b631e4fbdf760e01b5f525f60045260245ffd5b91908201809211610cef57565b611958611749565b9060018201809211610cef575f51602061211e5f395f51905f525460018101809111610cef576118cf92600192611e66565b611992611749565b9060018201809211610cef575f51602061211e5f395f51905f525460018101809111610cef576118cf925f92611e66565b5f51602061211e5f395f51905f52549060018201809211610cef576119e6611749565b60018101809111610cef576118cf92600192611e66565b5f51602061211e5f395f51905f52549060018201809211610cef57611a20611749565b60018101809111610cef576118cf925f92611e66565b9190611a4183611845565b60018060a01b0382165f5260205260405f2054925f198410611a64575b50505050565b828410611ab1576001600160a01b03811615611520576001600160a01b0382161561150d57611a9290611845565b9060018060a01b03165f5260205260405f20910390555f808080611a5e565b508290637dc7a0d960e11b5f5260018060a01b031660045260245260445260645ffd5b6001600160a01b0316908115611ba5576001600160a01b0316918215611b9257815f525f5160206120be5f395f51905f5260205260405f2054818110611b7957817fddf252ad1be2c89b69c2b068fc378daa952ba7f163c4a11628f55a4df523b3ef92602092855f525f5160206120be5f395f51905f5284520360405f2055845f525f5160206120be5f395f51905f52825260405f20818154019055604051908152a3565b8263391434e360e21b5f5260045260245260445260645ffd5b63ec442f0560e01b5f525f60045260245ffd5b634b637e8f60e11b5f525f60045260245ffd5b90816020910312610c2157518015158103610c215790565b5f5160206120fe5f395f51905f52546001600160a01b03163303611bf057565b63118cdaa760e01b5f523360045260245ffd5b5f51602061213e5f395f51905f52546040516323b872dd60e01b60208201526001600160a01b039283166024820181905230604483015260648083018790528252949392611c5c9216611c57608483611727565b612045565b6001600160a01b0316928315611b92577fdcbc1c05240f31ff3ad067ef1ee35ce4997762752e3a095284754544f4c709d79181611ca96040935f51602061211e5f395f51905f5254611943565b5f51602061211e5f395f51905f5255855f525f5160206120be5f395f51905f52602052825f20818154019055855f7fddf252ad1be2c89b69c2b068fc378daa952ba7f163c4a11628f55a4df523b3ef60208651858152a382519182526020820152a3565b6001600160a01b03808416959082169390918290878603611e55575b5050508415611ba557845f525f5160206120be5f395f51905f5260205260405f2054818110611e3c5791816040927ffbde797d201c681b91056529119e0b02407c7bb96a4a2c75c01fc9667232c8db94885f525f5160206120be5f395f51905f5260205203835f2055805f51602061211e5f395f51905f5254035f51602061211e5f395f51905f52555f877fddf252ad1be2c89b69c2b068fc378daa952ba7f163c4a11628f55a4df523b3ef60208651858152a35f51602061213e5f395f51905f5254835163a9059cbb60e01b60208201526001600160a01b03848116602483015260448083018a90528252611e259216611c57606483611727565b825195865260208601526001600160a01b031693a4565b8563391434e360e21b5f5260045260245260445260645ffd5b611e5e92611a36565b5f8181611d29565b9291611e73818386611eef565b926004811015610c0d576001809116149182611e99575b50506118cf9250151590611943565b9080925015611eb0576118cf930915155f80611e8a565b634e487b7160e01b5f52601260045260245ffd5b60ff5f51602061217e5f395f51905f525460401c1615611ee057565b631afcd79f60e31b5f5260045ffd5b90915f198383099280830292838086109503948086039514611f805784831115611f685790829109815f0382168092046002816003021880820260020302808202600203028082026002030280820260020302808202600203028091026002030293600183805f03040190848311900302920304170290565b82634e487b715f52156003026011186020526024601cfd5b505091508115611eb0570490565b5f8091604051602081019063313ce56760e01b825260048152611fb2602482611727565b51916001600160a01b03165afa3d1561203d573d9067ffffffffffffffff8211610c255760405191611fee601f8201601f191660200184611727565b82523d5f602084013e5b80612031575b61200a575b505f905f90565b60208151918180820193849201010312610c21575160ff8111612003579060ff6001921690565b50602081511015611ffe565b606090611ff8565b905f602091828151910182855af115610b81575f513d61209457506001600160a01b0381163b155b6120745750565b635274afe760e01b5f9081526001600160a01b0391909116600452602490fd5b6001141561206d56fe52c63247e1f47db19d5ce0460030c497f067ca4cebf71ba98eeadabe20bace0352c63247e1f47db19d5ce0460030c497f067ca4cebf71ba98eeadabe20bace0052c63247e1f47db19d5ce0460030c497f067ca4cebf71ba98eeadabe20bace049016d09d72d40fdae2fd8ceac6b6234c7706214fd39c1cd1e609a0528c19930052c63247e1f47db19d5ce0460030c497f067ca4cebf71ba98eeadabe20bace020773e532dfede91f04b12a73d3d2acd361424f41f76b4fb79f090161e36b4e009b779b17422d0df92223018b32b4d1fa46e071723d6817e2486d003becc55f00f0c57e16840df040f15088dc2f81fe391c3923bec73e23a9662efc9c229c6a00a2646970667358221220436fa430bcf96f4814fe7a5d3cf175b8f319b9e3f818d36300cfbac7a0b8afa364736f6c634300081e0033f0c57e16840df040f15088dc2f81fe391c3923bec73e23a9662efc9c229c6a00",
    "linkReferences": {}
  },
  "methodIdentifiers": {
    "allowance(address,address)": "dd62ed3e",
    "approve(address,uint256)": "095ea7b3",
    "asset()": "38d52e0f",
    "balanceOf(address)": "70a08231",
    "convertToAssets(uint256)": "07a2d13a",
    "convertToShares(uint256)": "c6e6f592",
    "decimals()": "313ce567",
    "deposit(uint256,address)": "6e553f65",
    "initialize(address,address,address,address,address)": "1459457a",
    "leverage()": "2c86d98e",
    "maxDeposit(address)": "402d267d",
    "maxMint(address)": "c63d75b6",
    "maxRedeem(address)": "d905777e",
    "maxWithdraw(address)": "ce96cb77",
    "mint(uint256,address)": "94bf804d",
    "name()": "06fdde03",
    "owner()": "8da5cb5b",
    "paused()": "5c975abb",
    "perpDex()": "123c549c",
    "perpDexTokenType()": "9c884346",
    "previewDeposit(uint256)": "ef8b30f7",
    "previewMint(uint256)": "b3d7f6b9",
    "previewRedeem(uint256)": "4cdad506",
    "previewWithdraw(uint256)": "0a28a477",
    "redeem(uint256,address,address)": "ba087652",
    "renounceOwnership()": "715018a6",
    "stKAIA()": "d80dabac",
    "swapFee()": "54cf2aeb",
    "symbol()": "95d89b41",
    "totalAssets()": "01e1d114",
    "totalSupply()": "18160ddd",
    "transfer(address,uint256)": "a9059cbb",
    "transferFrom(address,address,uint256)": "23b872dd",
    "transferOwnership(address)": "f2fde38b",
    "uniswapRouter()": "735de9f7",
    "withdraw(uint256,address,address)": "b460af94"
  },
  "id": 48
}