{
  "abi": [
    {
      "type": "constructor",
      "inputs": [],
      "stateMutability": "nonpayable"
    },
    {
      "type": "function",
      "name": "allowance",
      "inputs": [
        {
          "name": "owner",
          "type": "address",
          "internalType": "address"
        },
        {
          "name": "spender",
          "type": "address",
          "internalType": "address"
        }
      ],
      "outputs": [
        {
          "name": "",
          "type": "uint256",
          "internalType": "uint256"
        }
      ],
      "stateMutability": "view"
    },
    {
      "type": "function",
      "name": "approve",
      "inputs": [
        {
          "name": "spender",
          "type": "address",
          "internalType": "address"
        },
        {
          "name": "value",
          "type": "uint256",
          "internalType": "uint256"
        }
      ],
      "outputs": [
        {
          "name": "",
          "type": "bool",
          "internalType": "bool"
        }
      ],
      "stateMutability": "nonpayable"
    },
    {
      "type": "function",
      "name": "asset",
      "inputs": [],
      "outputs": [
        {
          "name": "",
          "type": "address",
          "internalType": "address"
        }
      ],
      "stateMutability": "view"
    },
    {
      "type": "function",
      "name": "balanceOf",
      "inputs": [
        {
          "name": "account",
          "type": "address",
          "internalType": "address"
        }
      ],
      "outputs": [
        {
          "name": "",
          "type": "uint256",
          "internalType": "uint256"
        }
      ],
      "stateMutability": "view"
    },
    {
      "type": "function",
      "name": "convertToAssets",
      "inputs": [
        {
          "name": "shares",
          "type": "uint256",
          "internalType": "uint256"
        }
      ],
      "outputs": [
        {
          "name": "",
          "type": "uint256",
          "internalType": "uint256"
        }
      ],
      "stateMutability": "view"
    },
    {
      "type": "function",
      "name": "convertToShares",
      "inputs": [
        {
          "name": "assets",
          "type": "uint256",
          "internalType": "uint256"
        }
      ],
      "outputs": [
        {
          "name": "",
          "type": "uint256",
          "internalType": "uint256"
        }
      ],
      "stateMutability": "view"
    },
    {
      "type": "function",
      "name": "decimals",
      "inputs": [],
      "outputs": [
        {
          "name": "",
          "type": "uint8",
          "internalType": "uint8"
        }
      ],
      "stateMutability": "view"
    },
    {
      "type": "function",
      "name": "deposit",
      "inputs": [
        {
          "name": "assets",
          "type": "uint256",
          "internalType": "uint256"
        },
        {
          "name": "receiver",
          "type": "address",
          "internalType": "address"
        }
      ],
      "outputs": [
        {
          "name": "shares",
          "type": "uint256",
          "internalType": "uint256"
        }
      ],
      "stateMutability": "nonpayable"
    },
    {
      "type": "function",
      "name": "getVaultStatus",
      "inputs": [],
      "outputs": [
        {
          "name": "",
          "type": "tuple",
          "internalType": "struct StkaiaDeltaNeutralVault.VaultStatus",
          "components": [
            {
              "name": "totalUsdtEverDeposited",
              "type": "uint256",
              "internalType": "uint256"
            },
            {
              "name": "totalUsdtCurrentlyShorted",
              "type": "uint256",
              "internalType": "uint256"
            },
            {
              "name": "currentStkAIABalance",
              "type": "uint256",
              "internalType": "uint256"
            },
            {
              "name": "totalShares",
              "type": "uint256",
              "internalType": "uint256"
            },
            {
              "name": "leftoverUsdtInVault",
              "type": "uint256",
              "internalType": "uint256"
            }
          ]
        }
      ],
      "stateMutability": "view"
    },
    {
      "type": "function",
      "name": "initialize",
      "inputs": [
        {
          "name": "_asset",
          "type": "address",
          "internalType": "address"
        },
        {
          "name": "_stKAIA",
          "type": "address",
          "internalType": "address"
        },
        {
          "name": "_uniswapRouter",
          "type": "address",
          "internalType": "address"
        },
        {
          "name": "_perpDex",
          "type": "address",
          "internalType": "address"
        },
        {
          "name": "_initialOwner",
          "type": "address",
          "internalType": "address"
        }
      ],
      "outputs": [],
      "stateMutability": "nonpayable"
    },
    {
      "type": "function",
      "name": "leverage",
      "inputs": [],
      "outputs": [
        {
          "name": "",
          "type": "uint256",
          "internalType": "uint256"
        }
      ],
      "stateMutability": "view"
    },
    {
      "type": "function",
      "name": "maxDeposit",
      "inputs": [
        {
          "name": "",
          "type": "address",
          "internalType": "address"
        }
      ],
      "outputs": [
        {
          "name": "",
          "type": "uint256",
          "internalType": "uint256"
        }
      ],
      "stateMutability": "view"
    },
    {
      "type": "function",
      "name": "maxMint",
      "inputs": [
        {
          "name": "",
          "type": "address",
          "internalType": "address"
        }
      ],
      "outputs": [
        {
          "name": "",
          "type": "uint256",
          "internalType": "uint256"
        }
      ],
      "stateMutability": "view"
    },
    {
      "type": "function",
      "name": "maxRedeem",
      "inputs": [
        {
          "name": "owner",
          "type": "address",
          "internalType": "address"
        }
      ],
      "outputs": [
        {
          "name": "",
          "type": "uint256",
          "internalType": "uint256"
        }
      ],
      "stateMutability": "view"
    },
    {
      "type": "function",
      "name": "maxWithdraw",
      "inputs": [
        {
          "name": "owner",
          "type": "address",
          "internalType": "address"
        }
      ],
      "outputs": [
        {
          "name": "",
          "type": "uint256",
          "internalType": "uint256"
        }
      ],
      "stateMutability": "view"
    },
    {
      "type": "function",
      "name": "mint",
      "inputs": [
        {
          "name": "shares",
          "type": "uint256",
          "internalType": "uint256"
        },
        {
          "name": "receiver",
          "type": "address",
          "internalType": "address"
        }
      ],
      "outputs": [
        {
          "name": "",
          "type": "uint256",
          "internalType": "uint256"
        }
      ],
      "stateMutability": "nonpayable"
    },
    {
      "type": "function",
      "name": "name",
      "inputs": [],
      "outputs": [
        {
          "name": "",
          "type": "string",
          "internalType": "string"
        }
      ],
      "stateMutability": "view"
    },
    {
      "type": "function",
      "name": "owner",
      "inputs": [],
      "outputs": [
        {
          "name": "",
          "type": "address",
          "internalType": "address"
        }
      ],
      "stateMutability": "view"
    },
    {
      "type": "function",
      "name": "paused",
      "inputs": [],
      "outputs": [
        {
          "name": "",
          "type": "bool",
          "internalType": "bool"
        }
      ],
      "stateMutability": "view"
    },
    {
      "type": "function",
      "name": "perpDex",
      "inputs": [],
      "outputs": [
        {
          "name": "",
          "type": "address",
          "internalType": "contract IPerpDex"
        }
      ],
      "stateMutability": "view"
    },
    {
      "type": "function",
      "name": "perpDexTokenType",
      "inputs": [],
      "outputs": [
        {
          "name": "",
          "type": "uint8",
          "internalType": "enum IPerpDex.TokenType"
        }
      ],
      "stateMutability": "view"
    },
    {
      "type": "function",
      "name": "previewDeposit",
      "inputs": [
        {
          "name": "assets",
          "type": "uint256",
          "internalType": "uint256"
        }
      ],
      "outputs": [
        {
          "name": "",
          "type": "uint256",
          "internalType": "uint256"
        }
      ],
      "stateMutability": "view"
    },
    {
      "type": "function",
      "name": "previewMint",
      "inputs": [
        {
          "name": "shares",
          "type": "uint256",
          "internalType": "uint256"
        }
      ],
      "outputs": [
        {
          "name": "",
          "type": "uint256",
          "internalType": "uint256"
        }
      ],
      "stateMutability": "view"
    },
    {
      "type": "function",
      "name": "previewRedeem",
      "inputs": [
        {
          "name": "shares",
          "type": "uint256",
          "internalType": "uint256"
        }
      ],
      "outputs": [
        {
          "name": "",
          "type": "uint256",
          "internalType": "uint256"
        }
      ],
      "stateMutability": "view"
    },
    {
      "type": "function",
      "name": "previewWithdraw",
      "inputs": [
        {
          "name": "assets",
          "type": "uint256",
          "internalType": "uint256"
        }
      ],
      "outputs": [
        {
          "name": "",
          "type": "uint256",
          "internalType": "uint256"
        }
      ],
      "stateMutability": "view"
    },
    {
      "type": "function",
      "name": "redeem",
      "inputs": [
        {
          "name": "shares",
          "type": "uint256",
          "internalType": "uint256"
        },
        {
          "name": "receiver",
          "type": "address",
          "internalType": "address"
        },
        {
          "name": "owner",
          "type": "address",
          "internalType": "address"
        }
      ],
      "outputs": [
        {
          "name": "",
          "type": "uint256",
          "internalType": "uint256"
        }
      ],
      "stateMutability": "nonpayable"
    },
    {
      "type": "function",
      "name": "renounceOwnership",
      "inputs": [],
      "outputs": [],
      "stateMutability": "nonpayable"
    },
    {
      "type": "function",
      "name": "stKAIA",
      "inputs": [],
      "outputs": [
        {
          "name": "",
          "type": "address",
          "internalType": "contract IERC20"
        }
      ],
      "stateMutability": "view"
    },
    {
      "type": "function",
      "name": "swapFee",
      "inputs": [],
      "outputs": [
        {
          "name": "",
          "type": "uint24",
          "internalType": "uint24"
        }
      ],
      "stateMutability": "view"
    },
    {
      "type": "function",
      "name": "symbol",
      "inputs": [],
      "outputs": [
        {
          "name": "",
          "type": "string",
          "internalType": "string"
        }
      ],
      "stateMutability": "view"
    },
    {
      "type": "function",
      "name": "totalAssets",
      "inputs": [],
      "outputs": [
        {
          "name": "",
          "type": "uint256",
          "internalType": "uint256"
        }
      ],
      "stateMutability": "view"
    },
    {
      "type": "function",
      "name": "totalSupply",
      "inputs": [],
      "outputs": [
        {
          "name": "",
          "type": "uint256",
          "internalType": "uint256"
        }
      ],
      "stateMutability": "view"
    },
    {
      "type": "function",
      "name": "totalUsdtDeposited",
      "inputs": [],
      "outputs": [
        {
          "name": "",
          "type": "uint256",
          "internalType": "uint256"
        }
      ],
      "stateMutability": "view"
    },
    {
      "type": "function",
      "name": "totalUsdtShorted",
      "inputs": [],
      "outputs": [
        {
          "name": "",
          "type": "uint256",
          "internalType": "uint256"
        }
      ],
      "stateMutability": "view"
    },
    {
      "type": "function",
      "name": "transfer",
      "inputs": [
        {
          "name": "to",
          "type": "address",
          "internalType": "address"
        },
        {
          "name": "value",
          "type": "uint256",
          "internalType": "uint256"
        }
      ],
      "outputs": [
        {
          "name": "",
          "type": "bool",
          "internalType": "bool"
        }
      ],
      "stateMutability": "nonpayable"
    },
    {
      "type": "function",
      "name": "transferFrom",
      "inputs": [
        {
          "name": "from",
          "type": "address",
          "internalType": "address"
        },
        {
          "name": "to",
          "type": "address",
          "internalType": "address"
        },
        {
          "name": "value",
          "type": "uint256",
          "internalType": "uint256"
        }
      ],
      "outputs": [
        {
          "name": "",
          "type": "bool",
          "internalType": "bool"
        }
      ],
      "stateMutability": "nonpayable"
    },
    {
      "type": "function",
      "name": "transferOwnership",
      "inputs": [
        {
          "name": "newOwner",
          "type": "address",
          "internalType": "address"
        }
      ],
      "outputs": [],
      "stateMutability": "nonpayable"
    },
    {
      "type": "function",
      "name": "uniswapRouter",
      "inputs": [],
      "outputs": [
        {
          "name": "",
          "type": "address",
          "internalType": "contract IUniswapV3Router"
        }
      ],
      "stateMutability": "view"
    },
    {
      "type": "function",
      "name": "withdraw",
      "inputs": [
        {
          "name": "assets",
          "type": "uint256",
          "internalType": "uint256"
        },
        {
          "name": "receiver",
          "type": "address",
          "internalType": "address"
        },
        {
          "name": "owner",
          "type": "address",
          "internalType": "address"
        }
      ],
      "outputs": [
        {
          "name": "",
          "type": "uint256",
          "internalType": "uint256"
        }
      ],
      "stateMutability": "nonpayable"
    },
    {
      "type": "event",
      "name": "Approval",
      "inputs": [
        {
          "name": "owner",
          "type": "address",
          "indexed": true,
          "internalType": "address"
        },
        {
          "name": "spender",
          "type": "address",
          "indexed": true,
          "internalType": "address"
        },
        {
          "name": "value",
          "type": "uint256",
          "indexed": false,
          "internalType": "uint256"
        }
      ],
      "anonymous": false
    },
    {
      "type": "event",
      "name": "Deposit",
      "inputs": [
        {
          "name": "sender",
          "type": "address",
          "indexed": true,
          "internalType": "address"
        },
        {
          "name": "owner",
          "type": "address",
          "indexed": true,
          "internalType": "address"
        },
        {
          "name": "assets",
          "type": "uint256",
          "indexed": false,
          "internalType": "uint256"
        },
        {
          "name": "shares",
          "type": "uint256",
          "indexed": false,
          "internalType": "uint256"
        }
      ],
      "anonymous": false
    },
    {
      "type": "event",
      "name": "Initialized",
      "inputs": [
        {
          "name": "version",
          "type": "uint64",
          "indexed": false,
          "internalType": "uint64"
        }
      ],
      "anonymous": false
    },
    {
      "type": "event",
      "name": "OwnershipTransferred",
      "inputs": [
        {
          "name": "previousOwner",
          "type": "address",
          "indexed": true,
          "internalType": "address"
        },
        {
          "name": "newOwner",
          "type": "address",
          "indexed": true,
          "internalType": "address"
        }
      ],
      "anonymous": false
    },
    {
      "type": "event",
      "name": "Paused",
      "inputs": [
        {
          "name": "account",
          "type": "address",
          "indexed": false,
          "internalType": "address"
        }
      ],
      "anonymous": false
    },
    {
      "type": "event",
      "name": "StrategyExecuted",
      "inputs": [
        {
          "name": "totalUsdtAmount",
          "type": "uint256",
          "indexed": false,
          "internalType": "uint256"
        },
        {
          "name": "amountSwapped",
          "type": "uint256",
          "indexed": false,
          "internalType": "uint256"
        },
        {
          "name": "amountShorted",
          "type": "uint256",
          "indexed": false,
          "internalType": "uint256"
        },
        {
          "name": "stKAIAAmountReceived",
          "type": "uint256",
          "indexed": false,
          "internalType": "uint256"
        }
      ],
      "anonymous": false
    },
    {
      "type": "event",
      "name": "Transfer",
      "inputs": [
        {
          "name": "from",
          "type": "address",
          "indexed": true,
          "internalType": "address"
        },
        {
          "name": "to",
          "type": "address",
          "indexed": true,
          "internalType": "address"
        },
        {
          "name": "value",
          "type": "uint256",
          "indexed": false,
          "internalType": "uint256"
        }
      ],
      "anonymous": false
    },
    {
      "type": "event",
      "name": "Unpaused",
      "inputs": [
        {
          "name": "account",
          "type": "address",
          "indexed": false,
          "internalType": "address"
        }
      ],
      "anonymous": false
    },
    {
      "type": "event",
      "name": "Withdraw",
      "inputs": [
        {
          "name": "sender",
          "type": "address",
          "indexed": true,
          "internalType": "address"
        },
        {
          "name": "receiver",
          "type": "address",
          "indexed": true,
          "internalType": "address"
        },
        {
          "name": "owner",
          "type": "address",
          "indexed": true,
          "internalType": "address"
        },
        {
          "name": "assets",
          "type": "uint256",
          "indexed": false,
          "internalType": "uint256"
        },
        {
          "name": "shares",
          "type": "uint256",
          "indexed": false,
          "internalType": "uint256"
        }
      ],
      "anonymous": false
    },
    {
      "type": "error",
      "name": "ERC20InsufficientAllowance",
      "inputs": [
        {
          "name": "spender",
          "type": "address",
          "internalType": "address"
        },
        {
          "name": "allowance",
          "type": "uint256",
          "internalType": "uint256"
        },
        {
          "name": "needed",
          "type": "uint256",
          "internalType": "uint256"
        }
      ]
    },
    {
      "type": "error",
      "name": "ERC20InsufficientBalance",
      "inputs": [
        {
          "name": "sender",
          "type": "address",
          "internalType": "address"
        },
        {
          "name": "balance",
          "type": "uint256",
          "internalType": "uint256"
        },
        {
          "name": "needed",
          "type": "uint256",
          "internalType": "uint256"
        }
      ]
    },
    {
      "type": "error",
      "name": "ERC20InvalidApprover",
      "inputs": [
        {
          "name": "approver",
          "type": "address",
          "internalType": "address"
        }
      ]
    },
    {
      "type": "error",
      "name": "ERC20InvalidReceiver",
      "inputs": [
        {
          "name": "receiver",
          "type": "address",
          "internalType": "address"
        }
      ]
    },
    {
      "type": "error",
      "name": "ERC20InvalidSender",
      "inputs": [
        {
          "name": "sender",
          "type": "address",
          "internalType": "address"
        }
      ]
    },
    {
      "type": "error",
      "name": "ERC20InvalidSpender",
      "inputs": [
        {
          "name": "spender",
          "type": "address",
          "internalType": "address"
        }
      ]
    },
    {
      "type": "error",
      "name": "ERC4626ExceededMaxDeposit",
      "inputs": [
        {
          "name": "receiver",
          "type": "address",
          "internalType": "address"
        },
        {
          "name": "assets",
          "type": "uint256",
          "internalType": "uint256"
        },
        {
          "name": "max",
          "type": "uint256",
          "internalType": "uint256"
        }
      ]
    },
    {
      "type": "error",
      "name": "ERC4626ExceededMaxMint",
      "inputs": [
        {
          "name": "receiver",
          "type": "address",
          "internalType": "address"
        },
        {
          "name": "shares",
          "type": "uint256",
          "internalType": "uint256"
        },
        {
          "name": "max",
          "type": "uint256",
          "internalType": "uint256"
        }
      ]
    },
    {
      "type": "error",
      "name": "ERC4626ExceededMaxRedeem",
      "inputs": [
        {
          "name": "owner",
          "type": "address",
          "internalType": "address"
        },
        {
          "name": "shares",
          "type": "uint256",
          "internalType": "uint256"
        },
        {
          "name": "max",
          "type": "uint256",
          "internalType": "uint256"
        }
      ]
    },
    {
      "type": "error",
      "name": "ERC4626ExceededMaxWithdraw",
      "inputs": [
        {
          "name": "owner",
          "type": "address",
          "internalType": "address"
        },
        {
          "name": "assets",
          "type": "uint256",
          "internalType": "uint256"
        },
        {
          "name": "max",
          "type": "uint256",
          "internalType": "uint256"
        }
      ]
    },
    {
      "type": "error",
      "name": "EnforcedPause",
      "inputs": []
    },
    {
      "type": "error",
      "name": "ExpectedPause",
      "inputs": []
    },
    {
      "type": "error",
      "name": "InvalidInitialization",
      "inputs": []
    },
    {
      "type": "error",
      "name": "NotInitializing",
      "inputs": []
    },
    {
      "type": "error",
      "name": "OwnableInvalidOwner",
      "inputs": [
        {
          "name": "owner",
          "type": "address",
          "internalType": "address"
        }
      ]
    },
    {
      "type": "error",
      "name": "OwnableUnauthorizedAccount",
      "inputs": [
        {
          "name": "account",
          "type": "address",
          "internalType": "address"
        }
      ]
    },
    {
      "type": "error",
      "name": "ReentrancyGuardReentrantCall",
      "inputs": []
    },
    {
      "type": "error",
      "name": "SafeERC20FailedOperation",
      "inputs": [
        {
          "name": "token",
          "type": "address",
          "internalType": "address"
        }
      ]
    }
  ],
  "bytecode": {
    "object": "0x6080806040523460aa575f5160206124355f395f51905f525460ff8160401c16609b576002600160401b03196001600160401b038216016049575b60405161238690816100af8239f35b6001600160401b0319166001600160401b039081175f5160206124355f395f51905f525581527fc7f505b2f371ae2175ee4913f4499e1f2633a7b5936321eed1cdaeb6115181d290602090a15f80603a565b63f92ee8a960e01b5f5260045ffd5b5f80fdfe6080806040526004361015610012575f80fd5b5f905f3560e01c90816301e1d114146117c65750806306fdde03146116e457806307a2d13a14610f35578063095ea7b31461163f5780630a28a47714611621578063123c549c146115f95780631459457a1461102e57806318160ddd146110055780631ff6ed6014610fe857806323b872dd14610fb05780632c86d98e14610f93578063313ce56714610f6e57806338d52e0f14610f3a578063402d267d146102c05780634cdad50614610f3557806354cf2aeb14610f135780635c975abb14610ed25780636e553f65146107ab57806370a0823114610247578063715018a614610742578063735de9f71461071b5780638da5cb5b146106e657806394bf804d146106b257806395d89b41146105b35780639c8843461461058b578063a9059cbb14610559578063aede67ea146103bc578063b3d7f6b91461039d578063b460af9414610340578063ba087652146102e3578063c50bf780146102c5578063c63d75b6146102c0578063c6e6f592146101fa578063ce96cb771461029c578063d80dabac14610273578063d905777e14610247578063dd62ed3e146101ff578063ef8b30f7146101fa5763f2fde38b146101cb575f80fd5b346101f75760203660031901126101f7576101f46101e7611897565b6101ef611e80565b611abf565b80f35b80fd5b611621565b50346101f75760403660031901126101f757610219611897565b61022a6102246118ad565b91611a32565b9060018060a01b03165f52602052602060405f2054604051908152f35b50346101f75760203660031901126101f757602061026b610266611897565b611a6a565b604051908152f35b50346101f757806003193601126101f7576002546040516001600160a01b039091168152602090f35b50346101f75760203660031901126101f757602061026b6102bb611897565b611a90565b6118c3565b50346101f757806003193601126101f7576020600454604051908152f35b50346101f7576102f2366118f5565b926102fc84611a6a565b80841161031d5760208561026b868661031482611b95565b93849133611fbd565b915091606493632e52afbb60e21b845260018060a01b0316600452602452604452fd5b50346101f75761034f366118f5565b91909261035b83611a90565b80831161037c5760208461026b878661037381611c4e565b93849233611fbd565b60649284633fa733bb60e21b845260018060a01b0316600452602452604452fd5b50346101f75760203660031901126101f757602061026b600435611b95565b50346101f757806003193601126101f7578060249160806040516103df8161192f565b828152826020820152826040820152826060820152015260035490600454602060018060a01b0360025416604051958680926370a0823160e01b82523060048301525afa801561054e57829061051b575b5f5160206122d15f395f51905f52545f5160206122f15f395f51905f52546040516370a0823160e01b81523060048201529650909290602090879060249082906001600160a01b03165afa93841561050f57936104d6575b60a09550608060405161049a8161192f565b86815260208101928352604081019384526060810194855201938452604051948552516020850152516040840152516060830152516080820152f35b92506020853d602011610507575b816104f16020938361194b565b810103126105035760a0945192610488565b5f80fd5b3d91506104e4565b604051903d90823e3d90fd5b506020843d602011610546575b816105356020938361194b565b810103126105035760249351610430565b3d9150610528565b6040513d84823e3d90fd5b50346101f75760403660031901126101f757610580610576611897565b6024359033611d84565b602060405160018152f35b50346101f757806003193601126101f757602060ff600754166105b160405180926118e8565bf35b50346101f757806003193601126101f75760405190805f5160206122915f395f51905f5254906105e28261196d565b808552916001811690811561068b5750600114610622575b61061e8461060a8186038261194b565b604051918291602083526020830190611855565b0390f35b5f5160206122915f395f51905f5281527f46a2803e59a4de4e7a4c574b1243f25977ac4c77d5a1a4a609b5394cebb4a2aa939250905b8082106106715750909150810160200161060a826105fa565b919260018160209254838588010152019101909291610658565b60ff191660208087019190915292151560051b8501909201925061060a91508390506105fa565b50346101f75760403660031901126101f757602060043561026b6106d46118ad565b916106de81611b95565b809333611eb3565b50346101f757806003193601126101f7575f5160206122b15f395f51905f52546040516001600160a01b039091168152602090f35b50346101f757806003193601126101f757546040516001600160a01b039091168152602090f35b50346101f757806003193601126101f75761075b611e80565b5f5160206122b15f395f51905f5280546001600160a01b0319811690915581906001600160a01b03167f8be0079c531659141344cd1fd0a4f28419497f9722a3daafe3b4186f6b6457e08280a380f35b34610503576040366003190112610503576004356107c76118ad565b9060025f5160206123115f395f51905f525414610ec35760025f5160206123115f395f51905f525560ff7fcd5ed15c6e187e77e9aee88184c21f4f2182ab5827cb3b7e07fbedcd63f033005416610eb4578061083b81151593610829856119d9565b61083283611c4e565b93849133611eb3565b61086e6040519361084b8561192f565b5f85526060602086015260606040860152606080860152606060808601526119d9565b8060011c61087c8183611b49565b5f5160206122f15f395f51905f52545f805460405163095ea7b360e01b81526001600160a01b039182166004820152602481018390529216969190602090829060449082908b5af18015610d4a57610e97575b505f5460405163095ea7b360e01b81526001600160a01b03909116600482015260248101849052602081806044810103815f8b5af18015610d4a57610e7a575b5060018060a01b03600254169562ffffff600554169660405160e0810181811067ffffffffffffffff821117610dea57604090815283825260208201928352818101998a523060608301908152608083018881525f60a0850181815260c08601828152915494516304e45aaf60e01b815295516001600160a01b0390811660048801529651871660248701529c5162ffffff166044860152915185166064850152516084840152995160a48301529851821660c48201529788918291165a925f60e492602095f1968715610d4a575f97610e46575b5082610a52575b602086610a36877f1016dd3802d85d7f0edea8943b2098da8f36ba247e2a7d2999137e83bf2602da6080898d8a604051928684528984015260408301526060820152a1600354611a25565b60035560015f5160206123115f395f51905f5255604051908152f35b60018060a096959394961b03600154166040519063095ea7b360e01b825260048201525f60248201526020816044815f865af18015610d4a57610ad4926020928892610e2b575b5060015460405163095ea7b360e01b81526001600160a01b0390911660048201526024810192909252909283919082905f9082906044820190565b03925af18015610d4a57610dfe575b5060ff60075416916006549060405193610140850185811067ffffffffffffffff821117610dea576040526013811015610dd657845260208401918683526040850190815260608501915f8352608086019030825260a0870190815260c087015f815260e08801915f83526101008901935f855260209660405196610b68898961194b565b5f88526101208c019788526001546001600160a01b0316998a3b1561050357604051630d0309cd60e21b8152600481018b90529c51610bab9060248f01906118e8565b5160448d01525160648c015251151560848b0152516001600160a01b031660a48a01525161014060c48a015280516102048a0191906002811015610dd6576101648b01528681015160a06101848c01528051928390528a979695949392610224890192918801905f5b818110610dbf57505050604081015188830361016319016101a48a0152805180845292880192908801905f5b818110610da857505050606081015188830361016319016101c48a0152805180845292880192908801905f5b818110610d9157505050608001519561016319888303016101e48901528651908183528083019281808460051b8301019901935f915b848310610d55575050505050505f9694869488948694610ce3945160e487015251610104860152516101248501525160231984830301610144850152611855565b03925af1908115610d4a57602096610a36957f1016dd3802d85d7f0edea8943b2098da8f36ba247e2a7d2999137e83bf2602da94608094610d3a575b50610d2c81600454611a25565b6004559350965092936109eb565b5f610d449161194b565b5f610d1f565b6040513d5f823e3d90fd5b91939596979899859b509280610d79600193958298601f1987830301885251611855565b9c019301930190928d9a999897969593949294610ca2565b825185528d9a509389019391890191600101610c6c565b825185528d9a509389019391890191600101610c40565b825185528d9a509389019391890191600101610c14565b634e487b7160e01b5f52602160045260245ffd5b634e487b7160e01b5f52604160045260245ffd5b610e1f9060203d602011610e24575b610e17818361194b565b810190611e68565b610ae3565b503d610e0d565b610e4190843d8611610e2457610e17818361194b565b610a99565b9096506020813d602011610e72575b81610e626020938361194b565b81010312610503575195876109e4565b3d9150610e55565b610e929060203d602011610e2457610e17818361194b565b61090f565b610eaf9060203d602011610e2457610e17818361194b565b6108cf565b63d93c066560e01b5f5260045ffd5b633ee5aeb560e01b5f5260045ffd5b34610503575f36600319011261050357602060ff7fcd5ed15c6e187e77e9aee88184c21f4f2182ab5827cb3b7e07fbedcd63f0330054166040519015158152f35b34610503575f36600319011261050357602062ffffff60055416604051908152f35b611879565b34610503575f366003190112610503575f5160206122f15f395f51905f52546040516001600160a01b039091168152602090f35b34610503575f366003190112610503576020610f886119a5565b60ff60405191168152f35b34610503575f366003190112610503576020600654604051908152f35b3461050357606036600319011261050357610580610fcc611897565b610fd46118ad565b60443591610fe3833383611ce6565b611d84565b34610503575f366003190112610503576020600354604051908152f35b34610503575f3660031901126105035760205f5160206122d15f395f51905f5254604051908152f35b346105035760a036600319011261050357611047611897565b61104f6118ad565b906044356001600160a01b03811690819003610503576064356001600160a01b038116919082900361050357608435936001600160a01b0385168503610503575f5160206123315f395f51905f52549360ff8560401c16159467ffffffffffffffff8116801590816115f1575b60011490816115e7575b1590816115de575b506115cf5767ffffffffffffffff1981166001175f5160206123315f395f51905f5255856115a3575b506001600160a01b0316611109612116565b611111612116565b61111a81612141565b901561159b575b5f5160206122f15f395f51905f52549060ff60a01b9060a01b16906affffffffffffffffffffff60a81b1617175f5160206122f15f395f51905f5255604094855161116c878261194b565b602081527f53746b6169612044656c7461204e65757472616c205661756c7420536861726560208201528651906111a3888361194b565b600582526473646e565360d81b60208301526111bd612116565b6111c5612116565b80519067ffffffffffffffff8211610dea5781906111f05f5160206122515f395f51905f525461196d565b601f8111611521575b50602090601f83116001146114a3575f92611498575b50508160011b915f199060031b1c1916175f5160206122515f395f51905f52555b80519067ffffffffffffffff8211610dea576112595f5160206122915f395f51905f525461196d565b601f8111611429575b50602090601f83116001146113a8576112b09392915f918361139d575b50508160011b915f199060031b1c1916175f5160206122915f395f51905f52555b6112a8612116565b6101ef612116565b6112b8612116565b6112c0612116565b6112c8612116565b60015f5160206123115f395f51905f525560018060a01b03166001600160601b0360a01b60025416176002556001600160601b0360a01b5f5416175f556001600160601b0360a01b6001541617600155610bb862ffffff196005541617600555671bc16d674ec80000600655600160ff19600754161760075561134757005b60207fc7f505b2f371ae2175ee4913f4499e1f2633a7b5936321eed1cdaeb6115181d29168ff0000000000000000195f5160206123315f395f51905f5254165f5160206123315f395f51905f52555160018152a1005b01519050898061127f565b90601f198316915f5160206122915f395f51905f525f52815f20925f5b81811061141157509160019391856112b0979694106113f9575b505050811b015f5160206122915f395f51905f52556112a0565b01515f1960f88460031b161c191690558980806113df565b929360206001819287860151815501950193016113c5565b5f5160206122915f395f51905f525f527f46a2803e59a4de4e7a4c574b1243f25977ac4c77d5a1a4a609b5394cebb4a2aa601f840160051c8101916020851061148e575b601f0160051c01905b8181106114835750611262565b5f8155600101611476565b909150819061146d565b01519050898061120f565b5f5160206122515f395f51905f525f9081528281209350601f198516905b81811061150957509084600195949392106114f1575b505050811b015f5160206122515f395f51905f5255611230565b01515f1960f88460031b161c191690558980806114d7565b929360206001819287860151815501950193016114c1565b5f5160206122515f395f51905f525f529091507f2ae08a8e29253f69ac5d979a101956ab8f8d9d7ded63fa7a83b16fc47648eab0601f840160051c81019160208510611591575b90601f859493920160051c01905b81811061158357506111f9565b5f8155849350600101611576565b9091508190611568565b506012611121565b68ffffffffffffffffff191668010000000000000001175f5160206123315f395f51905f5255866110f7565b63f92ee8a960e01b5f5260045ffd5b905015886110ce565b303b1591506110c6565b8791506110bc565b34610503575f366003190112610503576001546040516001600160a01b039091168152602090f35b3461050357602036600319011261050357602061026b600435611c4e565b3461050357604036600319011261050357611658611897565b6024359033156116d1576001600160a01b03169081156116be5761167b33611a32565b825f526020528060405f20556040519081527f8c5be1e5ebec7d5bd14f71427d1e84f3dd0314c0f7b2291e5b200ac8c7c3b92560203392a3602060405160018152f35b634a1406b160e11b5f525f60045260245ffd5b63e602df0560e01b5f525f60045260245ffd5b34610503575f366003190112610503576040515f5f5160206122515f395f51905f52546117108161196d565b80845290600181169081156117a25750600114611738575b61061e8361060a8185038261194b565b5f5160206122515f395f51905f525f9081527f2ae08a8e29253f69ac5d979a101956ab8f8d9d7ded63fa7a83b16fc47648eab0939250905b8082106117885750909150810160200161060a611728565b919260018160209254838588010152019101909291611770565b60ff191660208086019190915291151560051b8401909101915061060a9050611728565b34610503575f366003190112610503575f5160206122f15f395f51905f52546370a0823160e01b8252306004830152602090829060249082906001600160a01b03165afa8015610d4a575f90611822575b602090604051908152f35b506020813d60201161184d575b8161183c6020938361194b565b810103126105035760209051611817565b3d915061182f565b805180835260209291819084018484015e5f828201840152601f01601f1916010190565b3461050357602036600319011261050357602061026b600435611b95565b600435906001600160a01b038216820361050357565b602435906001600160a01b038216820361050357565b34610503576020366003190112610503576118dc611897565b5060206040515f198152f35b906013821015610dd65752565b606090600319011261050357600435906024356001600160a01b038116810361050357906044356001600160a01b03811681036105035790565b60a0810190811067ffffffffffffffff821117610dea57604052565b90601f8019910116810190811067ffffffffffffffff821117610dea57604052565b90600182811c9216801561199b575b602083101461198757565b634e487b7160e01b5f52602260045260245ffd5b91607f169161197c565b60ff5f5160206122f15f395f51905f525460a01c1660ff81116119c55790565b634e487b7160e01b5f52601160045260245ffd5b156119e057565b60405162461bcd60e51b815260206004820152601960248201527f5661756c743a20616d6f756e74206d757374206265203e2030000000000000006044820152606490fd5b919082018092116119c557565b6001600160a01b03165f9081527f52c63247e1f47db19d5ce0460030c497f067ca4cebf71ba98eeadabe20bace016020526040902090565b6001600160a01b03165f9081525f5160206122715f395f51905f52602052604090205490565b6001600160a01b03165f9081525f5160206122715f395f51905f526020526040902054611abc90611b95565b90565b6001600160a01b03168015611b1d575f5160206122b15f395f51905f5280546001600160a01b0319811683179091556001600160a01b03167f8be0079c531659141344cd1fd0a4f28419497f9722a3daafe3b4186f6b6457e05f80a3565b631e4fbdf760e01b5f525f60045260245ffd5b90816020910312610503575160ff811681036105035790565b919082039182116119c557565b604d81116119c557600a0a90565b8115611b6e570490565b634e487b7160e01b5f52601260045260245ffd5b818102929181159184041417156119c557565b5f5160206122f15f395f51905f525460405163313ce56760e01b815290602090829060049082906001600160a01b03165afa8015610d4a5760ff915f91611c1f575b50169060ff611be46119a5565b169180831015611c0957611bfe611abc93611c0392611b49565b611b56565b90611b82565b611bfe611c1991611abc94611b49565b90611b64565b611c41915060203d602011611c47575b611c39818361194b565b810190611b30565b5f611bd7565b503d611c2f565b5f5160206122f15f395f51905f525460405163313ce56760e01b815290602090829060049082906001600160a01b03165afa8015610d4a5760ff915f91611cc7575b50169060ff611c9d6119a5565b169180831015611cb757611bfe611abc93611c1992611b49565b611bfe611c0391611abc94611b49565b611ce0915060203d602011611c4757611c39818361194b565b5f611c90565b9190611cf183611a32565b60018060a01b0382165f5260205260405f2054925f198410611d14575b50505050565b828410611d61576001600160a01b038116156116d1576001600160a01b038216156116be57611d4290611a32565b9060018060a01b03165f5260205260405f20910390555f808080611d0e565b508290637dc7a0d960e11b5f5260018060a01b031660045260245260445260645ffd5b6001600160a01b0316908115611e55576001600160a01b0316918215611e4257815f525f5160206122715f395f51905f5260205260405f2054818110611e2957817fddf252ad1be2c89b69c2b068fc378daa952ba7f163c4a11628f55a4df523b3ef92602092855f525f5160206122715f395f51905f5284520360405f2055845f525f5160206122715f395f51905f52825260405f20818154019055604051908152a3565b8263391434e360e21b5f5260045260245260445260645ffd5b63ec442f0560e01b5f525f60045260245ffd5b634b637e8f60e11b5f525f60045260245ffd5b90816020910312610503575180151581036105035790565b5f5160206122b15f395f51905f52546001600160a01b03163303611ea057565b63118cdaa760e01b5f523360045260245ffd5b5f5160206122f15f395f51905f52546040516323b872dd60e01b60208201526001600160a01b039283166024820181905230604483015260648083018790528252949392611f0c9216611f0760848361194b565b6121f8565b6001600160a01b0316928315611e42577fdcbc1c05240f31ff3ad067ef1ee35ce4997762752e3a095284754544f4c709d79181611f596040935f5160206122d15f395f51905f5254611a25565b5f5160206122d15f395f51905f5255855f525f5160206122715f395f51905f52602052825f20818154019055855f7fddf252ad1be2c89b69c2b068fc378daa952ba7f163c4a11628f55a4df523b3ef60208651858152a382519182526020820152a3565b6001600160a01b03808416959082169390918290878603612105575b5050508415611e5557845f525f5160206122715f395f51905f5260205260405f20548181106120ec5791816040927ffbde797d201c681b91056529119e0b02407c7bb96a4a2c75c01fc9667232c8db94885f525f5160206122715f395f51905f5260205203835f2055805f5160206122d15f395f51905f5254035f5160206122d15f395f51905f52555f877fddf252ad1be2c89b69c2b068fc378daa952ba7f163c4a11628f55a4df523b3ef60208651858152a35f5160206122f15f395f51905f5254835163a9059cbb60e01b60208201526001600160a01b03848116602483015260448083018a905282526120d59216611f0760648361194b565b825195865260208601526001600160a01b031693a4565b8563391434e360e21b5f5260045260245260445260645ffd5b61210e92611ce6565b5f8181611fd9565b60ff5f5160206123315f395f51905f525460401c161561213257565b631afcd79f60e31b5f5260045ffd5b5f8091604051602081019063313ce56760e01b82526004815261216560248261194b565b51916001600160a01b03165afa3d156121f0573d9067ffffffffffffffff8211610dea57604051916121a1601f8201601f19166020018461194b565b82523d5f602084013e5b806121e4575b6121bd575b505f905f90565b60208151918180820193849201010312610503575160ff81116121b6579060ff6001921690565b506020815110156121b1565b6060906121ab565b905f602091828151910182855af115610d4a575f513d61224757506001600160a01b0381163b155b6122275750565b635274afe760e01b5f9081526001600160a01b0391909116600452602490fd5b6001141561222056fe52c63247e1f47db19d5ce0460030c497f067ca4cebf71ba98eeadabe20bace0352c63247e1f47db19d5ce0460030c497f067ca4cebf71ba98eeadabe20bace0052c63247e1f47db19d5ce0460030c497f067ca4cebf71ba98eeadabe20bace049016d09d72d40fdae2fd8ceac6b6234c7706214fd39c1cd1e609a0528c19930052c63247e1f47db19d5ce0460030c497f067ca4cebf71ba98eeadabe20bace020773e532dfede91f04b12a73d3d2acd361424f41f76b4fb79f090161e36b4e009b779b17422d0df92223018b32b4d1fa46e071723d6817e2486d003becc55f00f0c57e16840df040f15088dc2f81fe391c3923bec73e23a9662efc9c229c6a00a2646970667358221220903cb9bb78f15c7dada5d58b6a9938806b8869df9fb13966701bf54d585c72f164736f6c634300081e0033f0c57e16840df040f15088dc2f81fe391c3923bec73e23a9662efc9c229c6a00",
    "linkReferences": {}
  },
  "methodIdentifiers": {
    "allowance(address,address)": "dd62ed3e",
    "approve(address,uint256)": "095ea7b3",
    "asset()": "38d52e0f",
    "balanceOf(address)": "70a08231",
    "convertToAssets(uint256)": "07a2d13a",
    "convertToShares(uint256)": "c6e6f592",
    "decimals()": "313ce567",
    "deposit(uint256,address)": "6e553f65",
    "getVaultStatus()": "aede67ea",
    "initialize(address,address,address,address,address)": "1459457a",
    "leverage()": "2c86d98e",
    "maxDeposit(address)": "402d267d",
    "maxMint(address)": "c63d75b6",
    "maxRedeem(address)": "d905777e",
    "maxWithdraw(address)": "ce96cb77",
    "mint(uint256,address)": "94bf804d",
    "name()": "06fdde03",
    "owner()": "8da5cb5b",
    "paused()": "5c975abb",
    "perpDex()": "123c549c",
    "perpDexTokenType()": "9c884346",
    "previewDeposit(uint256)": "ef8b30f7",
    "previewMint(uint256)": "b3d7f6b9",
    "previewRedeem(uint256)": "4cdad506",
    "previewWithdraw(uint256)": "0a28a477",
    "redeem(uint256,address,address)": "ba087652",
    "renounceOwnership()": "715018a6",
    "stKAIA()": "d80dabac",
    "swapFee()": "54cf2aeb",
    "symbol()": "95d89b41",
    "totalAssets()": "01e1d114",
    "totalSupply()": "18160ddd",
    "totalUsdtDeposited()": "1ff6ed60",
    "totalUsdtShorted()": "c50bf780",
    "transfer(address,uint256)": "a9059cbb",
    "transferFrom(address,address,uint256)": "23b872dd",
    "transferOwnership(address)": "f2fde38b",
    "uniswapRouter()": "735de9f7",
    "withdraw(uint256,address,address)": "b460af94"
  },
  "id": 49
}